{
  "_format": "hh-sol-artifact-1",
  "contractName": "HodlBeerNFT",
  "sourceName": "contracts/HodlBeerNFT.sol",
  "abi": [
    {
      "inputs": [],
      "stateMutability": "nonpayable",
      "type": "constructor"
    },
    {
      "anonymous": false,
      "inputs": [
        {
          "indexed": true,
          "internalType": "address",
          "name": "owner",
          "type": "address"
        },
        {
          "indexed": true,
          "internalType": "address",
          "name": "approved",
          "type": "address"
        },
        {
          "indexed": true,
          "internalType": "uint256",
          "name": "tokenId",
          "type": "uint256"
        }
      ],
      "name": "Approval",
      "type": "event"
    },
    {
      "anonymous": false,
      "inputs": [
        {
          "indexed": true,
          "internalType": "address",
          "name": "owner",
          "type": "address"
        },
        {
          "indexed": true,
          "internalType": "address",
          "name": "operator",
          "type": "address"
        },
        {
          "indexed": false,
          "internalType": "bool",
          "name": "approved",
          "type": "bool"
        }
      ],
      "name": "ApprovalForAll",
      "type": "event"
    },
    {
      "anonymous": false,
      "inputs": [
        {
          "indexed": false,
          "internalType": "address",
          "name": "sender",
          "type": "address"
        },
        {
          "indexed": false,
          "internalType": "uint256",
          "name": "tokenId",
          "type": "uint256"
        }
      ],
      "name": "NewNFTMinted",
      "type": "event"
    },
    {
      "anonymous": false,
      "inputs": [
        {
          "indexed": true,
          "internalType": "address",
          "name": "previousOwner",
          "type": "address"
        },
        {
          "indexed": true,
          "internalType": "address",
          "name": "newOwner",
          "type": "address"
        }
      ],
      "name": "OwnershipTransferred",
      "type": "event"
    },
    {
      "anonymous": false,
      "inputs": [
        {
          "indexed": true,
          "internalType": "address",
          "name": "from",
          "type": "address"
        },
        {
          "indexed": true,
          "internalType": "address",
          "name": "to",
          "type": "address"
        },
        {
          "indexed": true,
          "internalType": "uint256",
          "name": "tokenId",
          "type": "uint256"
        }
      ],
      "name": "Transfer",
      "type": "event"
    },
    {
      "inputs": [],
      "name": "BASE_URI",
      "outputs": [
        {
          "internalType": "string",
          "name": "",
          "type": "string"
        }
      ],
      "stateMutability": "view",
      "type": "function"
    },
    {
      "inputs": [],
      "name": "CURRENT_PRICE",
      "outputs": [
        {
          "internalType": "uint256",
          "name": "",
          "type": "uint256"
        }
      ],
      "stateMutability": "view",
      "type": "function"
    },
    {
      "inputs": [],
      "name": "DEV",
      "outputs": [
        {
          "internalType": "address",
          "name": "",
          "type": "address"
        }
      ],
      "stateMutability": "view",
      "type": "function"
    },
    {
      "inputs": [],
      "name": "MAX_TOKENS",
      "outputs": [
        {
          "internalType": "uint256",
          "name": "",
          "type": "uint256"
        }
      ],
      "stateMutability": "view",
      "type": "function"
    },
    {
      "inputs": [
        {
          "internalType": "address",
          "name": "to",
          "type": "address"
        },
        {
          "internalType": "uint256",
          "name": "tokenId",
          "type": "uint256"
        }
      ],
      "name": "approve",
      "outputs": [],
      "stateMutability": "nonpayable",
      "type": "function"
    },
    {
      "inputs": [
        {
          "internalType": "address",
          "name": "owner",
          "type": "address"
        }
      ],
      "name": "balanceOf",
      "outputs": [
        {
          "internalType": "uint256",
          "name": "",
          "type": "uint256"
        }
      ],
      "stateMutability": "view",
      "type": "function"
    },
    {
      "inputs": [],
      "name": "contractURI",
      "outputs": [
        {
          "internalType": "string",
          "name": "",
          "type": "string"
        }
      ],
      "stateMutability": "view",
      "type": "function"
    },
    {
      "inputs": [
        {
          "internalType": "uint256",
          "name": "tokenId",
          "type": "uint256"
        }
      ],
      "name": "getApproved",
      "outputs": [
        {
          "internalType": "address",
          "name": "",
          "type": "address"
        }
      ],
      "stateMutability": "view",
      "type": "function"
    },
    {
      "inputs": [
        {
          "internalType": "address",
          "name": "owner",
          "type": "address"
        },
        {
          "internalType": "address",
          "name": "operator",
          "type": "address"
        }
      ],
      "name": "isApprovedForAll",
      "outputs": [
        {
          "internalType": "bool",
          "name": "",
          "type": "bool"
        }
      ],
      "stateMutability": "view",
      "type": "function"
    },
    {
      "inputs": [],
      "name": "makeNFT",
      "outputs": [],
      "stateMutability": "payable",
      "type": "function"
    },
    {
      "inputs": [],
      "name": "name",
      "outputs": [
        {
          "internalType": "string",
          "name": "",
          "type": "string"
        }
      ],
      "stateMutability": "view",
      "type": "function"
    },
    {
      "inputs": [],
      "name": "owner",
      "outputs": [
        {
          "internalType": "address",
          "name": "",
          "type": "address"
        }
      ],
      "stateMutability": "view",
      "type": "function"
    },
    {
      "inputs": [
        {
          "internalType": "uint256",
          "name": "tokenId",
          "type": "uint256"
        }
      ],
      "name": "ownerOf",
      "outputs": [
        {
          "internalType": "address",
          "name": "",
          "type": "address"
        }
      ],
      "stateMutability": "view",
      "type": "function"
    },
    {
      "inputs": [],
      "name": "renounceOwnership",
      "outputs": [],
      "stateMutability": "nonpayable",
      "type": "function"
    },
    {
      "inputs": [
        {
          "internalType": "uint256",
          "name": "count",
          "type": "uint256"
        }
      ],
      "name": "reserveNFT",
      "outputs": [],
      "stateMutability": "nonpayable",
      "type": "function"
    },
    {
      "inputs": [
        {
          "internalType": "address",
          "name": "from",
          "type": "address"
        },
        {
          "internalType": "address",
          "name": "to",
          "type": "address"
        },
        {
          "internalType": "uint256",
          "name": "tokenId",
          "type": "uint256"
        }
      ],
      "name": "safeTransferFrom",
      "outputs": [],
      "stateMutability": "nonpayable",
      "type": "function"
    },
    {
      "inputs": [
        {
          "internalType": "address",
          "name": "from",
          "type": "address"
        },
        {
          "internalType": "address",
          "name": "to",
          "type": "address"
        },
        {
          "internalType": "uint256",
          "name": "tokenId",
          "type": "uint256"
        },
        {
          "internalType": "bytes",
          "name": "_data",
          "type": "bytes"
        }
      ],
      "name": "safeTransferFrom",
      "outputs": [],
      "stateMutability": "nonpayable",
      "type": "function"
    },
    {
      "inputs": [
        {
          "internalType": "address",
          "name": "operator",
          "type": "address"
        },
        {
          "internalType": "bool",
          "name": "approved",
          "type": "bool"
        }
      ],
      "name": "setApprovalForAll",
      "outputs": [],
      "stateMutability": "nonpayable",
      "type": "function"
    },
    {
      "inputs": [
        {
          "internalType": "string",
          "name": "BaseURI",
          "type": "string"
        }
      ],
      "name": "setBaseURI",
      "outputs": [],
      "stateMutability": "nonpayable",
      "type": "function"
    },
    {
      "inputs": [
        {
          "internalType": "uint256",
          "name": "currentPrice",
          "type": "uint256"
        }
      ],
      "name": "setCurrentPrice",
      "outputs": [],
      "stateMutability": "nonpayable",
      "type": "function"
    },
    {
      "inputs": [
        {
          "internalType": "bytes4",
          "name": "interfaceId",
          "type": "bytes4"
        }
      ],
      "name": "supportsInterface",
      "outputs": [
        {
          "internalType": "bool",
          "name": "",
          "type": "bool"
        }
      ],
      "stateMutability": "view",
      "type": "function"
    },
    {
      "inputs": [],
      "name": "symbol",
      "outputs": [
        {
          "internalType": "string",
          "name": "",
          "type": "string"
        }
      ],
      "stateMutability": "view",
      "type": "function"
    },
    {
      "inputs": [
        {
          "internalType": "uint256",
          "name": "tokenId",
          "type": "uint256"
        }
      ],
      "name": "tokenURI",
      "outputs": [
        {
          "internalType": "string",
          "name": "",
          "type": "string"
        }
      ],
      "stateMutability": "view",
      "type": "function"
    },
    {
      "inputs": [],
      "name": "totalSupply",
      "outputs": [
        {
          "internalType": "uint256",
          "name": "",
          "type": "uint256"
        }
      ],
      "stateMutability": "view",
      "type": "function"
    },
    {
      "inputs": [
        {
          "internalType": "address",
          "name": "from",
          "type": "address"
        },
        {
          "internalType": "address",
          "name": "to",
          "type": "address"
        },
        {
          "internalType": "uint256",
          "name": "tokenId",
          "type": "uint256"
        }
      ],
      "name": "transferFrom",
      "outputs": [],
      "stateMutability": "nonpayable",
      "type": "function"
    },
    {
      "inputs": [
        {
          "internalType": "address",
          "name": "newOwner",
          "type": "address"
        }
      ],
      "name": "transferOwnership",
      "outputs": [],
      "stateMutability": "nonpayable",
      "type": "function"
    },
    {
      "inputs": [],
      "name": "withdraw",
      "outputs": [],
      "stateMutability": "nonpayable",
      "type": "function"
    }
  ],
  "bytecode": "0x6080604052611770600955662386f26fc10000600a5560405180606001604052806029815260200162003c5660299139600b908051906020019062000046929190620001e9565b503480156200005457600080fd5b506040518060400160405280600c81526020017f486f646c42656572436c756200000000000000000000000000000000000000008152506040518060400160405280600581526020017f484f444c420000000000000000000000000000000000000000000000000000008152508160009080519060200190620000d9929190620001e9565b508060019080519060200190620000f2929190620001e9565b50505062000115620001096200011b60201b60201c565b6200012360201b60201c565b620002fe565b600033905090565b6000600760009054906101000a900473ffffffffffffffffffffffffffffffffffffffff16905081600760006101000a81548173ffffffffffffffffffffffffffffffffffffffff021916908373ffffffffffffffffffffffffffffffffffffffff1602179055508173ffffffffffffffffffffffffffffffffffffffff168173ffffffffffffffffffffffffffffffffffffffff167f8be0079c531659141344cd1fd0a4f28419497f9722a3daafe3b4186f6b6457e060405160405180910390a35050565b828054620001f790620002c8565b90600052602060002090601f0160209004810192826200021b576000855562000267565b82601f106200023657805160ff191683800117855562000267565b8280016001018555821562000267579182015b828111156200026657825182559160200191906001019062000249565b5b5090506200027691906200027a565b5090565b5b80821115620002955760008160009055506001016200027b565b5090565b7f4e487b7100000000000000000000000000000000000000000000000000000000600052602260045260246000fd5b60006002820490506001821680620002e157607f821691505b60208210811415620002f857620002f762000299565b5b50919050565b613948806200030e6000396000f3fe60806040526004361061019c5760003560e01c806370a08231116100ec578063c1eb5ddd1161008a578063e8a3d48511610064578063e8a3d4851461057f578063e985e9c5146105aa578063f2fde38b146105e7578063f47c84c5146106105761019c565b8063c1eb5ddd146104ec578063c87b56dd14610517578063dbddb26a146105545761019c565b806395d89b41116100c657806395d89b4114610465578063a22cb46514610490578063b036b4bd146104b9578063b88d4fde146104c35761019c565b806370a08231146103e6578063715018a6146104235780638da5cb5b1461043a5761019c565b806323b872dd1161015957806342842e0e1161013357806342842e0e1461032c5780634b369a611461035557806355f804b3146103805780636352211e146103a95761019c565b806323b872dd146102c3578063397be3fd146102ec5780633ccfd60b146103155761019c565b806301ffc9a7146101a157806306fdde03146101de578063081812fc14610209578063095ea7b31461024657806318160ddd1461026f57806318b200711461029a575b600080fd5b3480156101ad57600080fd5b506101c860048036038101906101c391906124f6565b61063b565b6040516101d5919061253e565b60405180910390f35b3480156101ea57600080fd5b506101f361071d565b60405161020091906125f2565b60405180910390f35b34801561021557600080fd5b50610230600480360381019061022b919061264a565b6107af565b60405161023d91906126b8565b60405180910390f35b34801561025257600080fd5b5061026d600480360381019061026891906126ff565b610834565b005b34801561027b57600080fd5b5061028461094c565b604051610291919061274e565b60405180910390f35b3480156102a657600080fd5b506102c160048036038101906102bc919061264a565b61095d565b005b3480156102cf57600080fd5b506102ea60048036038101906102e59190612769565b6109e3565b005b3480156102f857600080fd5b50610313600480360381019061030e919061264a565b610a43565b005b34801561032157600080fd5b5061032a610b84565b005b34801561033857600080fd5b50610353600480360381019061034e9190612769565b610cc2565b005b34801561036157600080fd5b5061036a610ce2565b604051610377919061274e565b60405180910390f35b34801561038c57600080fd5b506103a760048036038101906103a291906128f1565b610ce8565b005b3480156103b557600080fd5b506103d060048036038101906103cb919061264a565b610d7e565b6040516103dd91906126b8565b60405180910390f35b3480156103f257600080fd5b5061040d6004803603810190610408919061293a565b610e30565b60405161041a919061274e565b60405180910390f35b34801561042f57600080fd5b50610438610ee8565b005b34801561044657600080fd5b5061044f610f70565b60405161045c91906126b8565b60405180910390f35b34801561047157600080fd5b5061047a610f9a565b60405161048791906125f2565b60405180910390f35b34801561049c57600080fd5b506104b760048036038101906104b29190612993565b61102c565b005b6104c1611042565b005b3480156104cf57600080fd5b506104ea60048036038101906104e59190612a74565b611129565b005b3480156104f857600080fd5b5061050161118b565b60405161050e91906126b8565b60405180910390f35b34801561052357600080fd5b5061053e6004803603810190610539919061264a565b6111a3565b60405161054b91906125f2565b60405180910390f35b34801561056057600080fd5b506105696112f5565b60405161057691906125f2565b60405180910390f35b34801561058b57600080fd5b50610594611383565b6040516105a191906125f2565b60405180910390f35b3480156105b657600080fd5b506105d160048036038101906105cc9190612af7565b611415565b6040516105de919061253e565b60405180910390f35b3480156105f357600080fd5b5061060e6004803603810190610609919061293a565b6114a9565b005b34801561061c57600080fd5b506106256115a1565b604051610632919061274e565b60405180910390f35b60007f80ac58cd000000000000000000000000000000000000000000000000000000007bffffffffffffffffffffffffffffffffffffffffffffffffffffffff1916827bffffffffffffffffffffffffffffffffffffffffffffffffffffffff1916148061070657507f5b5e139f000000000000000000000000000000000000000000000000000000007bffffffffffffffffffffffffffffffffffffffffffffffffffffffff1916827bffffffffffffffffffffffffffffffffffffffffffffffffffffffff1916145b806107165750610715826115a7565b5b9050919050565b60606000805461072c90612b66565b80601f016020809104026020016040519081016040528092919081815260200182805461075890612b66565b80156107a55780601f1061077a576101008083540402835291602001916107a5565b820191906000526020600020905b81548152906001019060200180831161078857829003601f168201915b5050505050905090565b60006107ba82611611565b6107f9576040517f08c379a00000000000000000000000000000000000000000000000000000000081526004016107f090612c0a565b60405180910390fd5b6004600083815260200190815260200160002060009054906101000a900473ffffffffffffffffffffffffffffffffffffffff169050919050565b600061083f82610d7e565b90508073ffffffffffffffffffffffffffffffffffffffff168373ffffffffffffffffffffffffffffffffffffffff1614156108b0576040517f08c379a00000000000000000000000000000000000000000000000000000000081526004016108a790612c9c565b60405180910390fd5b8073ffffffffffffffffffffffffffffffffffffffff166108cf61167d565b73ffffffffffffffffffffffffffffffffffffffff1614806108fe57506108fd816108f861167d565b611415565b5b61093d576040517f08c379a000000000000000000000000000000000000000000000000000000000815260040161093490612d2e565b60405180910390fd5b6109478383611685565b505050565b6000610958600861173e565b905090565b61096561167d565b73ffffffffffffffffffffffffffffffffffffffff16610983610f70565b73ffffffffffffffffffffffffffffffffffffffff16146109d9576040517f08c379a00000000000000000000000000000000000000000000000000000000081526004016109d090612d9a565b60405180910390fd5b80600a8190555050565b6109f46109ee61167d565b8261174c565b610a33576040517f08c379a0000000000000000000000000000000000000000000000000000000008152600401610a2a90612e2c565b60405180910390fd5b610a3e83838361182a565b505050565b610a4b61167d565b73ffffffffffffffffffffffffffffffffffffffff16610a69610f70565b73ffffffffffffffffffffffffffffffffffffffff1614610abf576040517f08c379a0000000000000000000000000000000000000000000000000000000008152600401610ab690612d9a565b60405180910390fd5b6000600190505b818111610b80576000610ad9600861173e565b90506009548110610b1f576040517f08c379a0000000000000000000000000000000000000000000000000000000008152600401610b1690612e98565b60405180910390fd5b610b293382611a91565b610b336008611aaf565b7f1c05098ed1ff38e6238d2b1b04b2c7977d4c94ce651bda6473f9dba8dbf01da03382604051610b64929190612eb8565b60405180910390a1508080610b7890612f10565b915050610ac6565b5050565b610b8c61167d565b73ffffffffffffffffffffffffffffffffffffffff16610baa610f70565b73ffffffffffffffffffffffffffffffffffffffff1614610c00576040517f08c379a0000000000000000000000000000000000000000000000000000000008152600401610bf790612d9a565b60405180910390fd5b60004790507399872620911cbc41b66bc5d4123e21f09abc0c4473ffffffffffffffffffffffffffffffffffffffff166108fc6064600a84610c429190612f59565b610c4c9190612fe2565b9081150290604051600060405180830381858888f19350505050158015610c77573d6000803e3d6000fd5b503373ffffffffffffffffffffffffffffffffffffffff166108fc479081150290604051600060405180830381858888f19350505050158015610cbe573d6000803e3d6000fd5b5050565b610cdd83838360405180602001604052806000815250611129565b505050565b600a5481565b610cf061167d565b73ffffffffffffffffffffffffffffffffffffffff16610d0e610f70565b73ffffffffffffffffffffffffffffffffffffffff1614610d64576040517f08c379a0000000000000000000000000000000000000000000000000000000008152600401610d5b90612d9a565b60405180910390fd5b80600b9080519060200190610d7a9291906123e7565b5050565b6000806002600084815260200190815260200160002060009054906101000a900473ffffffffffffffffffffffffffffffffffffffff169050600073ffffffffffffffffffffffffffffffffffffffff168173ffffffffffffffffffffffffffffffffffffffff161415610e27576040517f08c379a0000000000000000000000000000000000000000000000000000000008152600401610e1e90613085565b60405180910390fd5b80915050919050565b60008073ffffffffffffffffffffffffffffffffffffffff168273ffffffffffffffffffffffffffffffffffffffff161415610ea1576040517f08c379a0000000000000000000000000000000000000000000000000000000008152600401610e9890613117565b60405180910390fd5b600360008373ffffffffffffffffffffffffffffffffffffffff1673ffffffffffffffffffffffffffffffffffffffff168152602001908152602001600020549050919050565b610ef061167d565b73ffffffffffffffffffffffffffffffffffffffff16610f0e610f70565b73ffffffffffffffffffffffffffffffffffffffff1614610f64576040517f08c379a0000000000000000000000000000000000000000000000000000000008152600401610f5b90612d9a565b60405180910390fd5b610f6e6000611ac5565b565b6000600760009054906101000a900473ffffffffffffffffffffffffffffffffffffffff16905090565b606060018054610fa990612b66565b80601f0160208091040260200160405190810160405280929190818152602001828054610fd590612b66565b80156110225780601f10610ff757610100808354040283529160200191611022565b820191906000526020600020905b81548152906001019060200180831161100557829003601f168201915b5050505050905090565b61103e61103761167d565b8383611b8b565b5050565b600061104e600861173e565b905034600a541115611095576040517f08c379a000000000000000000000000000000000000000000000000000000000815260040161108c90613183565b60405180910390fd5b60095481106110d9576040517f08c379a00000000000000000000000000000000000000000000000000000000081526004016110d090612e98565b60405180910390fd5b6110e33382611a91565b6110ed6008611aaf565b7f1c05098ed1ff38e6238d2b1b04b2c7977d4c94ce651bda6473f9dba8dbf01da0338260405161111e929190612eb8565b60405180910390a150565b61113a61113461167d565b8361174c565b611179576040517f08c379a000000000000000000000000000000000000000000000000000000000815260040161117090612e2c565b60405180910390fd5b61118584848484611cf8565b50505050565b7399872620911cbc41b66bc5d4123e21f09abc0c4481565b60606111ae82611611565b6111ed576040517f08c379a00000000000000000000000000000000000000000000000000000000081526004016111e490613215565b60405180910390fd5b600060066000848152602001908152602001600020805461120d90612b66565b80601f016020809104026020016040519081016040528092919081815260200182805461123990612b66565b80156112865780601f1061125b57610100808354040283529160200191611286565b820191906000526020600020905b81548152906001019060200180831161126957829003601f168201915b505050505090506000611297611d54565b90506000815114156112ad5781925050506112f0565b6000825111156112e25780826040516020016112ca929190613271565b604051602081830303815290604052925050506112f0565b6112eb84611de6565b925050505b919050565b600b805461130290612b66565b80601f016020809104026020016040519081016040528092919081815260200182805461132e90612b66565b801561137b5780601f106113505761010080835404028352916020019161137b565b820191906000526020600020905b81548152906001019060200180831161135e57829003601f168201915b505050505081565b6060600b805461139290612b66565b80601f01602080910402602001604051908101604052809291908181526020018280546113be90612b66565b801561140b5780601f106113e05761010080835404028352916020019161140b565b820191906000526020600020905b8154815290600101906020018083116113ee57829003601f168201915b5050505050905090565b6000600560008473ffffffffffffffffffffffffffffffffffffffff1673ffffffffffffffffffffffffffffffffffffffff16815260200190815260200160002060008373ffffffffffffffffffffffffffffffffffffffff1673ffffffffffffffffffffffffffffffffffffffff16815260200190815260200160002060009054906101000a900460ff16905092915050565b6114b161167d565b73ffffffffffffffffffffffffffffffffffffffff166114cf610f70565b73ffffffffffffffffffffffffffffffffffffffff1614611525576040517f08c379a000000000000000000000000000000000000000000000000000000000815260040161151c90612d9a565b60405180910390fd5b600073ffffffffffffffffffffffffffffffffffffffff168173ffffffffffffffffffffffffffffffffffffffff161415611595576040517f08c379a000000000000000000000000000000000000000000000000000000000815260040161158c90613307565b60405180910390fd5b61159e81611ac5565b50565b60095481565b60007f01ffc9a7000000000000000000000000000000000000000000000000000000007bffffffffffffffffffffffffffffffffffffffffffffffffffffffff1916827bffffffffffffffffffffffffffffffffffffffffffffffffffffffff1916149050919050565b60008073ffffffffffffffffffffffffffffffffffffffff166002600084815260200190815260200160002060009054906101000a900473ffffffffffffffffffffffffffffffffffffffff1673ffffffffffffffffffffffffffffffffffffffff1614159050919050565b600033905090565b816004600083815260200190815260200160002060006101000a81548173ffffffffffffffffffffffffffffffffffffffff021916908373ffffffffffffffffffffffffffffffffffffffff160217905550808273ffffffffffffffffffffffffffffffffffffffff166116f883610d7e565b73ffffffffffffffffffffffffffffffffffffffff167f8c5be1e5ebec7d5bd14f71427d1e84f3dd0314c0f7b2291e5b200ac8c7c3b92560405160405180910390a45050565b600081600001549050919050565b600061175782611611565b611796576040517f08c379a000000000000000000000000000000000000000000000000000000000815260040161178d90613399565b60405180910390fd5b60006117a183610d7e565b90508073ffffffffffffffffffffffffffffffffffffffff168473ffffffffffffffffffffffffffffffffffffffff16148061181057508373ffffffffffffffffffffffffffffffffffffffff166117f8846107af565b73ffffffffffffffffffffffffffffffffffffffff16145b8061182157506118208185611415565b5b91505092915050565b8273ffffffffffffffffffffffffffffffffffffffff1661184a82610d7e565b73ffffffffffffffffffffffffffffffffffffffff16146118a0576040517f08c379a00000000000000000000000000000000000000000000000000000000081526004016118979061342b565b60405180910390fd5b600073ffffffffffffffffffffffffffffffffffffffff168273ffffffffffffffffffffffffffffffffffffffff161415611910576040517f08c379a0000000000000000000000000000000000000000000000000000000008152600401611907906134bd565b60405180910390fd5b61191b838383611e8d565b611926600082611685565b6001600360008573ffffffffffffffffffffffffffffffffffffffff1673ffffffffffffffffffffffffffffffffffffffff168152602001908152602001600020600082825461197691906134dd565b925050819055506001600360008473ffffffffffffffffffffffffffffffffffffffff1673ffffffffffffffffffffffffffffffffffffffff16815260200190815260200160002060008282546119cd9190613511565b92505081905550816002600083815260200190815260200160002060006101000a81548173ffffffffffffffffffffffffffffffffffffffff021916908373ffffffffffffffffffffffffffffffffffffffff160217905550808273ffffffffffffffffffffffffffffffffffffffff168473ffffffffffffffffffffffffffffffffffffffff167fddf252ad1be2c89b69c2b068fc378daa952ba7f163c4a11628f55a4df523b3ef60405160405180910390a4611a8c838383611e92565b505050565b611aab828260405180602001604052806000815250611e97565b5050565b6001816000016000828254019250508190555050565b6000600760009054906101000a900473ffffffffffffffffffffffffffffffffffffffff16905081600760006101000a81548173ffffffffffffffffffffffffffffffffffffffff021916908373ffffffffffffffffffffffffffffffffffffffff1602179055508173ffffffffffffffffffffffffffffffffffffffff168173ffffffffffffffffffffffffffffffffffffffff167f8be0079c531659141344cd1fd0a4f28419497f9722a3daafe3b4186f6b6457e060405160405180910390a35050565b8173ffffffffffffffffffffffffffffffffffffffff168373ffffffffffffffffffffffffffffffffffffffff161415611bfa576040517f08c379a0000000000000000000000000000000000000000000000000000000008152600401611bf1906135b3565b60405180910390fd5b80600560008573ffffffffffffffffffffffffffffffffffffffff1673ffffffffffffffffffffffffffffffffffffffff16815260200190815260200160002060008473ffffffffffffffffffffffffffffffffffffffff1673ffffffffffffffffffffffffffffffffffffffff16815260200190815260200160002060006101000a81548160ff0219169083151502179055508173ffffffffffffffffffffffffffffffffffffffff168373ffffffffffffffffffffffffffffffffffffffff167f17307eab39ab6107e8899845ad3d59bd9653f200f220920489ca2b5937696c3183604051611ceb919061253e565b60405180910390a3505050565b611d0384848461182a565b611d0f84848484611ef2565b611d4e576040517f08c379a0000000000000000000000000000000000000000000000000000000008152600401611d4590613645565b60405180910390fd5b50505050565b6060600b8054611d6390612b66565b80601f0160208091040260200160405190810160405280929190818152602001828054611d8f90612b66565b8015611ddc5780601f10611db157610100808354040283529160200191611ddc565b820191906000526020600020905b815481529060010190602001808311611dbf57829003601f168201915b5050505050905090565b6060611df182611611565b611e30576040517f08c379a0000000000000000000000000000000000000000000000000000000008152600401611e27906136d7565b60405180910390fd5b6000611e3a611d54565b90506000815111611e5a5760405180602001604052806000815250611e85565b80611e6484612089565b604051602001611e75929190613271565b6040516020818303038152906040525b915050919050565b505050565b505050565b611ea183836121ea565b611eae6000848484611ef2565b611eed576040517f08c379a0000000000000000000000000000000000000000000000000000000008152600401611ee490613645565b60405180910390fd5b505050565b6000611f138473ffffffffffffffffffffffffffffffffffffffff166123c4565b1561207c578373ffffffffffffffffffffffffffffffffffffffff1663150b7a02611f3c61167d565b8786866040518563ffffffff1660e01b8152600401611f5e949392919061374c565b602060405180830381600087803b158015611f7857600080fd5b505af1925050508015611fa957506040513d601f19601f82011682018060405250810190611fa691906137ad565b60015b61202c573d8060008114611fd9576040519150601f19603f3d011682016040523d82523d6000602084013e611fde565b606091505b50600081511415612024576040517f08c379a000000000000000000000000000000000000000000000000000000000815260040161201b90613645565b60405180910390fd5b805181602001fd5b63150b7a0260e01b7bffffffffffffffffffffffffffffffffffffffffffffffffffffffff1916817bffffffffffffffffffffffffffffffffffffffffffffffffffffffff191614915050612081565b600190505b949350505050565b606060008214156120d1576040518060400160405280600181526020017f300000000000000000000000000000000000000000000000000000000000000081525090506121e5565b600082905060005b600082146121035780806120ec90612f10565b915050600a826120fc9190612fe2565b91506120d9565b60008167ffffffffffffffff81111561211f5761211e6127c6565b5b6040519080825280601f01601f1916602001820160405280156121515781602001600182028036833780820191505090505b5090505b600085146121de5760018261216a91906134dd565b9150600a8561217991906137da565b60306121859190613511565b60f81b81838151811061219b5761219a61380b565b5b60200101907effffffffffffffffffffffffffffffffffffffffffffffffffffffffffffff1916908160001a905350600a856121d79190612fe2565b9450612155565b8093505050505b919050565b600073ffffffffffffffffffffffffffffffffffffffff168273ffffffffffffffffffffffffffffffffffffffff16141561225a576040517f08c379a000000000000000000000000000000000000000000000000000000000815260040161225190613886565b60405180910390fd5b61226381611611565b156122a3576040517f08c379a000000000000000000000000000000000000000000000000000000000815260040161229a906138f2565b60405180910390fd5b6122af60008383611e8d565b6001600360008473ffffffffffffffffffffffffffffffffffffffff1673ffffffffffffffffffffffffffffffffffffffff16815260200190815260200160002060008282546122ff9190613511565b92505081905550816002600083815260200190815260200160002060006101000a81548173ffffffffffffffffffffffffffffffffffffffff021916908373ffffffffffffffffffffffffffffffffffffffff160217905550808273ffffffffffffffffffffffffffffffffffffffff16600073ffffffffffffffffffffffffffffffffffffffff167fddf252ad1be2c89b69c2b068fc378daa952ba7f163c4a11628f55a4df523b3ef60405160405180910390a46123c060008383611e92565b5050565b6000808273ffffffffffffffffffffffffffffffffffffffff163b119050919050565b8280546123f390612b66565b90600052602060002090601f016020900481019282612415576000855561245c565b82601f1061242e57805160ff191683800117855561245c565b8280016001018555821561245c579182015b8281111561245b578251825591602001919060010190612440565b5b509050612469919061246d565b5090565b5b8082111561248657600081600090555060010161246e565b5090565b6000604051905090565b600080fd5b600080fd5b60007fffffffff0000000000000000000000000000000000000000000000000000000082169050919050565b6124d38161249e565b81146124de57600080fd5b50565b6000813590506124f0816124ca565b92915050565b60006020828403121561250c5761250b612494565b5b600061251a848285016124e1565b91505092915050565b60008115159050919050565b61253881612523565b82525050565b6000602082019050612553600083018461252f565b92915050565b600081519050919050565b600082825260208201905092915050565b60005b83811015612593578082015181840152602081019050612578565b838111156125a2576000848401525b50505050565b6000601f19601f8301169050919050565b60006125c482612559565b6125ce8185612564565b93506125de818560208601612575565b6125e7816125a8565b840191505092915050565b6000602082019050818103600083015261260c81846125b9565b905092915050565b6000819050919050565b61262781612614565b811461263257600080fd5b50565b6000813590506126448161261e565b92915050565b6000602082840312156126605761265f612494565b5b600061266e84828501612635565b91505092915050565b600073ffffffffffffffffffffffffffffffffffffffff82169050919050565b60006126a282612677565b9050919050565b6126b281612697565b82525050565b60006020820190506126cd60008301846126a9565b92915050565b6126dc81612697565b81146126e757600080fd5b50565b6000813590506126f9816126d3565b92915050565b6000806040838503121561271657612715612494565b5b6000612724858286016126ea565b925050602061273585828601612635565b9150509250929050565b61274881612614565b82525050565b6000602082019050612763600083018461273f565b92915050565b60008060006060848603121561278257612781612494565b5b6000612790868287016126ea565b93505060206127a1868287016126ea565b92505060406127b286828701612635565b9150509250925092565b600080fd5b600080fd5b7f4e487b7100000000000000000000000000000000000000000000000000000000600052604160045260246000fd5b6127fe826125a8565b810181811067ffffffffffffffff8211171561281d5761281c6127c6565b5b80604052505050565b600061283061248a565b905061283c82826127f5565b919050565b600067ffffffffffffffff82111561285c5761285b6127c6565b5b612865826125a8565b9050602081019050919050565b82818337600083830152505050565b600061289461288f84612841565b612826565b9050828152602081018484840111156128b0576128af6127c1565b5b6128bb848285612872565b509392505050565b600082601f8301126128d8576128d76127bc565b5b81356128e8848260208601612881565b91505092915050565b60006020828403121561290757612906612494565b5b600082013567ffffffffffffffff81111561292557612924612499565b5b612931848285016128c3565b91505092915050565b6000602082840312156129505761294f612494565b5b600061295e848285016126ea565b91505092915050565b61297081612523565b811461297b57600080fd5b50565b60008135905061298d81612967565b92915050565b600080604083850312156129aa576129a9612494565b5b60006129b8858286016126ea565b92505060206129c98582860161297e565b9150509250929050565b600067ffffffffffffffff8211156129ee576129ed6127c6565b5b6129f7826125a8565b9050602081019050919050565b6000612a17612a12846129d3565b612826565b905082815260208101848484011115612a3357612a326127c1565b5b612a3e848285612872565b509392505050565b600082601f830112612a5b57612a5a6127bc565b5b8135612a6b848260208601612a04565b91505092915050565b60008060008060808587031215612a8e57612a8d612494565b5b6000612a9c878288016126ea565b9450506020612aad878288016126ea565b9350506040612abe87828801612635565b925050606085013567ffffffffffffffff811115612adf57612ade612499565b5b612aeb87828801612a46565b91505092959194509250565b60008060408385031215612b0e57612b0d612494565b5b6000612b1c858286016126ea565b9250506020612b2d858286016126ea565b9150509250929050565b7f4e487b7100000000000000000000000000000000000000000000000000000000600052602260045260246000fd5b60006002820490506001821680612b7e57607f821691505b60208210811415612b9257612b91612b37565b5b50919050565b7f4552433732313a20617070726f76656420717565727920666f72206e6f6e657860008201527f697374656e7420746f6b656e0000000000000000000000000000000000000000602082015250565b6000612bf4602c83612564565b9150612bff82612b98565b604082019050919050565b60006020820190508181036000830152612c2381612be7565b9050919050565b7f4552433732313a20617070726f76616c20746f2063757272656e74206f776e6560008201527f7200000000000000000000000000000000000000000000000000000000000000602082015250565b6000612c86602183612564565b9150612c9182612c2a565b604082019050919050565b60006020820190508181036000830152612cb581612c79565b9050919050565b7f4552433732313a20617070726f76652063616c6c6572206973206e6f74206f7760008201527f6e6572206e6f7220617070726f76656420666f7220616c6c0000000000000000602082015250565b6000612d18603883612564565b9150612d2382612cbc565b604082019050919050565b60006020820190508181036000830152612d4781612d0b565b9050919050565b7f4f776e61626c653a2063616c6c6572206973206e6f7420746865206f776e6572600082015250565b6000612d84602083612564565b9150612d8f82612d4e565b602082019050919050565b60006020820190508181036000830152612db381612d77565b9050919050565b7f4552433732313a207472616e736665722063616c6c6572206973206e6f74206f60008201527f776e6572206e6f7220617070726f766564000000000000000000000000000000602082015250565b6000612e16603183612564565b9150612e2182612dba565b604082019050919050565b60006020820190508181036000830152612e4581612e09565b9050919050565b7f4d617820737570706c79206f66204e4654000000000000000000000000000000600082015250565b6000612e82601183612564565b9150612e8d82612e4c565b602082019050919050565b60006020820190508181036000830152612eb181612e75565b9050919050565b6000604082019050612ecd60008301856126a9565b612eda602083018461273f565b9392505050565b7f4e487b7100000000000000000000000000000000000000000000000000000000600052601160045260246000fd5b6000612f1b82612614565b91507fffffffffffffffffffffffffffffffffffffffffffffffffffffffffffffffff821415612f4e57612f4d612ee1565b5b600182019050919050565b6000612f6482612614565b9150612f6f83612614565b9250817fffffffffffffffffffffffffffffffffffffffffffffffffffffffffffffffff0483118215151615612fa857612fa7612ee1565b5b828202905092915050565b7f4e487b7100000000000000000000000000000000000000000000000000000000600052601260045260246000fd5b6000612fed82612614565b9150612ff883612614565b92508261300857613007612fb3565b5b828204905092915050565b7f4552433732313a206f776e657220717565727920666f72206e6f6e657869737460008201527f656e7420746f6b656e0000000000000000000000000000000000000000000000602082015250565b600061306f602983612564565b915061307a82613013565b604082019050919050565b6000602082019050818103600083015261309e81613062565b9050919050565b7f4552433732313a2062616c616e636520717565727920666f7220746865207a6560008201527f726f206164647265737300000000000000000000000000000000000000000000602082015250565b6000613101602a83612564565b915061310c826130a5565b604082019050919050565b60006020820190508181036000830152613130816130f4565b9050919050565b7f56616c75652073656e74206973206e6f7420636f727265637400000000000000600082015250565b600061316d601983612564565b915061317882613137565b602082019050919050565b6000602082019050818103600083015261319c81613160565b9050919050565b7f45524337323155524953746f726167653a2055524920717565727920666f722060008201527f6e6f6e6578697374656e7420746f6b656e000000000000000000000000000000602082015250565b60006131ff603183612564565b915061320a826131a3565b604082019050919050565b6000602082019050818103600083015261322e816131f2565b9050919050565b600081905092915050565b600061324b82612559565b6132558185613235565b9350613265818560208601612575565b80840191505092915050565b600061327d8285613240565b91506132898284613240565b91508190509392505050565b7f4f776e61626c653a206e6577206f776e657220697320746865207a65726f206160008201527f6464726573730000000000000000000000000000000000000000000000000000602082015250565b60006132f1602683612564565b91506132fc82613295565b604082019050919050565b60006020820190508181036000830152613320816132e4565b9050919050565b7f4552433732313a206f70657261746f7220717565727920666f72206e6f6e657860008201527f697374656e7420746f6b656e0000000000000000000000000000000000000000602082015250565b6000613383602c83612564565b915061338e82613327565b604082019050919050565b600060208201905081810360008301526133b281613376565b9050919050565b7f4552433732313a207472616e736665722066726f6d20696e636f72726563742060008201527f6f776e6572000000000000000000000000000000000000000000000000000000602082015250565b6000613415602583612564565b9150613420826133b9565b604082019050919050565b6000602082019050818103600083015261344481613408565b9050919050565b7f4552433732313a207472616e7366657220746f20746865207a65726f2061646460008201527f7265737300000000000000000000000000000000000000000000000000000000602082015250565b60006134a7602483612564565b91506134b28261344b565b604082019050919050565b600060208201905081810360008301526134d68161349a565b9050919050565b60006134e882612614565b91506134f383612614565b92508282101561350657613505612ee1565b5b828203905092915050565b600061351c82612614565b915061352783612614565b9250827fffffffffffffffffffffffffffffffffffffffffffffffffffffffffffffffff0382111561355c5761355b612ee1565b5b828201905092915050565b7f4552433732313a20617070726f766520746f2063616c6c657200000000000000600082015250565b600061359d601983612564565b91506135a882613567565b602082019050919050565b600060208201905081810360008301526135cc81613590565b9050919050565b7f4552433732313a207472616e7366657220746f206e6f6e20455243373231526560008201527f63656976657220696d706c656d656e7465720000000000000000000000000000602082015250565b600061362f603283612564565b915061363a826135d3565b604082019050919050565b6000602082019050818103600083015261365e81613622565b9050919050565b7f4552433732314d657461646174613a2055524920717565727920666f72206e6f60008201527f6e6578697374656e7420746f6b656e0000000000000000000000000000000000602082015250565b60006136c1602f83612564565b91506136cc82613665565b604082019050919050565b600060208201905081810360008301526136f0816136b4565b9050919050565b600081519050919050565b600082825260208201905092915050565b600061371e826136f7565b6137288185613702565b9350613738818560208601612575565b613741816125a8565b840191505092915050565b600060808201905061376160008301876126a9565b61376e60208301866126a9565b61377b604083018561273f565b818103606083015261378d8184613713565b905095945050505050565b6000815190506137a7816124ca565b92915050565b6000602082840312156137c3576137c2612494565b5b60006137d184828501613798565b91505092915050565b60006137e582612614565b91506137f083612614565b925082613800576137ff612fb3565b5b828206905092915050565b7f4e487b7100000000000000000000000000000000000000000000000000000000600052603260045260246000fd5b7f4552433732313a206d696e7420746f20746865207a65726f2061646472657373600082015250565b6000613870602083612564565b915061387b8261383a565b602082019050919050565b6000602082019050818103600083015261389f81613863565b9050919050565b7f4552433732313a20746f6b656e20616c7265616479206d696e74656400000000600082015250565b60006138dc601c83612564565b91506138e7826138a6565b602082019050919050565b6000602082019050818103600083015261390b816138cf565b905091905056fea2646970667358221220f0fc5fd6b4d47e77101a6569544afc48ed8e29cd4d8386e8a1ba8b8712117a6664736f6c6343000809003368747470733a2f2f686f646c626565722e6e66742e626169636f6d2e636f6d2f6170692f636172642f",
  "linkReferences": {},
  "deployedLinkReferences": {}
}